:020000040000FA
:10C0000020050020D5C00000F5C0000029D40000A4
:10C010000000000000000000000000000000000020
:10C02000000000000000000000000000F9C0000057
:10C030000000000000000000FBC00000FDC0000088
:10C04000FFC00000A9D90000FFC00000FFC0000031
:10C05000FFC00000FFC00000FFC00000FFC00000E4
:10C0600075D8000099D80000FFC00000FFC0000094
:10C07000FFC00000FFC00000FFC00000FFC00000C4
:10C08000FFC00000FFC00000FFC00000FFC00000B4
:10C09000FFC00000FFC00000FFC00000FFC00000A4
:10C0A000FFC00000FFC00000FFC00000FFC0000094
:10C0B000FFC00000FFC00000FFC0000011D500005D
:10C0C0000348854600F038FA004800475DDC000070
:10C0D000200500200A480B4901600B4901600B490B
:10C0E00001600B4A0B491160002101600A4880473A
:10C0F0000A480047FEE7FEE7FEE7FEE7FEE7FEE749
:10C1000000010050590000001600000088000000E7
:10C1100024000050A55A000011D70000C1C0000043
:10C1200030B50B46014600202022012409E00D46CF
:10C13000D5409D4205D31D469540491B2546954057
:10C1400040191546521E002DF1DC30BDF0B51FB46C
:10C150000646002082B005464024019100901BE075
:10C16000019922460F46304600F008FA049A059BD2
:10C17000801A994110D310461946224600F0EEF974
:10C18000361A8F410197224601200021009F00F0BE
:10C19000E5F938184D4100902046641E0028DFDC88
:10C1A000019B00982946324607B0F0BDF0B507461E
:10C1B0000846584087B0C00F049048000E4659000A
:10C1C00040084908BC1A884105D2384631461E4607
:10C1D00017460B4602465800400810434CD0300D1D
:10C1E000039040055900400D490D0590401A0290FA
:10C1F000402872DA18030121000B09050843019059
:10C2000004980092002805D00199524200208841EC
:10C2100000920190029840210A1A0199009800F0BA
:10C220009DF905460C466B4607CB00F0B8F9C019DE
:10C230007141039A0E0D0023D71756401A467A40D3
:10C24000164344D0049A002A2DD0029A012A039A58
:10C2500015DC1205C01A914101263605001C7141FA
:10C26000D20F059ED2070093019202962A462346DA
:10C2700000F0B5F907B0F0BD38463146FAE71605CB
:10C28000224A0F46B218C01AB74101210905001C05
:10C290004F4100187F41114618187941E20F1043B1
:10C2A0006D19644113E0E2076D0815436408C20785
:10C2B0001443039A01261205C01A91413605001C49
:10C2C0007141CE07400830434908C01851412A4601
:10C2D000234600F077F9CDE7FFE7049801224000FC
:10C2E000C117121A00238B4104983146C417381A1B
:10C2F000A141EEE730B40124E407634030BC55E7C8
:10C3000030B40124E407614030BC4FE70000E0FF97
:10C31000F0B51FB488B00B990998002448400999DA
:10C32000C00F490049080991C0070B9900904900C6
:10C3300049080B9109990898A64608431CD00B9907
:10C340000A98084318D0099801244000420D48007B
:10C35000410D099824050003000B204309900B9818
:10C360000003000B20430B9050181C49401800227A
:10C3700001901446104605E0002001460DB0F0BDC6
:10C38000032801DA034600E003239C46C11A0AAEE3
:10C390000AE05F0008ADED5B4F00F75B7D430027CF
:10C3A000AA187C41491C5B1E6145F2DD410004ABCB
:10C3B0005A522104120C0A43240C401C0828DFDBCB
:10C3C000019802900099704601910090059B049A93
:10C3D0000799069800F003F9D0E700000DFCFFFF75
:10C3E000F0B50C465C4085B0E40FE40703944C00C4
:10C3F00000266408590094464908024602962243E2
:10C4000021D062460A431ED06200570D4A000E0337
:10C410002303550D012402462C492405781B1B0BD0
:10C42000360B401823432643614600901C46501AA1
:10C43000B44103D30098401C009002E09218009889
:10C440005B41002803DA0020014605B0F0BD002062
:10C45000012109050746864611E064461D46141B66
:10C46000B54106D36546521BB341744607430C439E
:10C47000A646CD0740084908284392185B41054667
:10C480000D43EAD11046184313D060461946504078
:10C490007140084306D06046101AB34106D201220B
:10C4A000002306E000220123DB0702E00122D24341
:10C4B0005310009874460105381C6141029C039D8D
:10C4C0000019694100F07EF8BFE70000FD0300009D
:10C4D0004A0009030123090B1B0519430A4B10B538
:10C4E000520D9A4202DA0020014610BD064B343349
:10C4F0009A4203DC9A1A00F041F810BD034BD2189F
:10C5000000F02CF810BD0000FF030000CDFBFFFF82
:10C5100010B5002904DB0124E40740428C41214688
:10C52000002B04DB1C460123DB075242A341994246
:10C5300000D1904210BD0000064C0125064E05E0DA
:10C54000E36807CC2B430C3C98471034B442F7D334
:10C55000FFF7BAFD14E8000034E8000010B5202A07
:10C5600004DB0146203A9140002010BD9140202379
:10C570009C1A0346E3401943904010BD10B5202A91
:10C5800004DB0846203AD040002110BD0B46D340C2
:10C59000D0402024A21A91400843194610BD10B57E
:10C5A000202A06DBCB170846203A1041C1170B435F
:10C5B00006E00B461341D0402024A21A91400843C4
:10C5C000194610BD10B5002B08DA0024401C61414B
:10C5D00092185B411A4301D14008400010BDF0B5EC
:10C5E0001FB482B005460C0003D0084601F0C0FB22
:10C5F00002E001F0BDFB20300246009021462846B3
:10C60000FFF7ACFF049B059A04460F4618431143FD
:10C61000084314D0184610431BD0009840210A1A32
:10C6200018460599FFF7AAFF05460E46009A059998
:10C630000498FFF793FF084305D0012004E020464B
:10C64000394607B0F0BD0020C11705430E432C4307
:10C65000374300990E986305401A7905E40A0022D1
:10C660000C43FD0A0A3002D500200146E9E7010526
:10C67000101969410C9C0D9D00196941FFF7A2FF3B
:10C68000DFE784B00A46039002A801700020019001
:10C6900069460870FFE76846007802A90978884271
:10C6A0000DDAFFE7039869460978405C019908189C
:10C6B0000190FFE70098401C69460870EBE701987D
:10C6C00004B0704780B584B0039003980078401C94
:10C6D00002A9087003984279120603791B04D21844
:10C6E000C3781B02D218807810180190039809783B
:10C6F0004018411E09780906821E12781204891812
:10C70000C21E127812028918001F007808180090C3
:10C710000398801D02990A39C9B2FFF7B2FF009948
:10C72000884209D1FFE701980399891D029A0A3AC4
:10C73000D2B200F081F8FFE704B080BD80B58CB0C4
:10C740000A900020099008900790069005900490A8
:10C75000384801680122114301600720800300F07E
:10C76000EDFD0990DF4800F0E9FD0890DF4800F09A
:10C77000E5FD0790099806900898059007980490A1
:10C780000A98002804D1FFE70120089009900BE0E7
:10C790000A980321C903884205D1FFE701200790C9
:10C7A00002200990FFE7FFE70898059988420AD11F
:10C7B000FFE707980499884205D1FFE70998069991
:10C7C000884214D0FFE707208003029000F084FD28
:10C7D0000999029A0190104600F0DEFD0899C148BF
:10C7E00000F0DAFD0799C14800F0D6FDFFE7002010
:10C7F000C143094A116010600A9800F0B7FD0A9819
:10C800004068064908600A980B900B9880F30888E6
:10C81000086880470CB080BD0C000050FC00002070
:10C8200080B500F083FD03480168082211430160D0
:10C8300080BDC04600C00050B0B58CB013460B9010
:10C840000A9109A80270002008901E48007800286C
:10C8500004D1FFE70B9800F03FFDFFE7194801788E
:10C86000491C03221140017009A80078800802A920
:10C87000087001A800210170FFE701A8007809A94C
:10C88000097888421BDAFFE70A9801A90A78831819
:10C89000DC7824069D782D0464195B781B02E3186C
:10C8A000805C181808900B9809784018089900F0D7
:10C8B00073FDFFE70198001D01A90870DDE70CB0CA
:10C8C000B0BDC0463000002080B58AB0002009907D
:10C8D00008900790069005900720800300F02EFD39
:10C8E0007F4908607F48049100F028FD7E49086078
:10C8F0007E48039100F022FD7D490860049802689B
:10C900000792039A136806930968059101686529DF
:10C9100004D3FFE7724800210160FFE77248006816
:10C92000652804D3FFE7704800210160FFE77048E5
:10C930000068652804D3FFE76D4800210160FFE728
:10C940000120400200F0FAFC0990C120400200F0F2
:10C95000F5FC08900998401C002809D0FFE76248C0
:10C960000068022804D0FFE75F480121016009E068
:10C970000998401C002804D1FFE75B4800210160B2
:10C98000FFE7FFE70898401C002809D0FFE7584858
:10C990000068022804D0FFE755480121016009E042
:10C9A0000898401C002804D1FFE75148002101608D
:10C9B000FFE7FFE74F480068002809D1FFE74E482E
:10C9C000012101704D497E480E2201F016F9FFE762
:10C9D00049480078002800D080E0494978480E2274
:10C9E00001F00BF942480068012809D1FFE74549E9
:10C9F0007348082201F001F9394802210160FFE77C
:10CA00003948006801280ED1FFE73948006801283D
:10CA100009D0FFE73C496A48092201F0EEF83048A6
:10CA200001210160FFE73048006801280ED0FFE7D0
:10CA30002F480068012809D0FFE7344960481222D6
:10CA400001F0DBF8264800210160FFE72448006878
:10CA5000079988420CD1FFE723480068069988426D
:10CA600006D1FFE7224800680599884217D0FFE702
:10CA700007208003029000F02FFC19490968029AF0
:10CA80000190104600F088FC17480168154800F036
:10CA900083FC17480168154800F07EFCFFE710484A
:10CAA0000068012809D1FFE71A494548152201F01D
:10CAB000A4F80020FFF742FE0FE0094800680228B2
:10CAC0000AD1FFE712493E48152201F096F80320EB
:10CAD000C003FFF733FEFFE7FFE7FFE70AB080BDC3
:10CAE0001001002004C001000801002008C001005E
:10CAF0000C010020004200500401002012E7000059
:10CB000020E7000063E7000088E7000076E7000008
:10CB10004EE700002EE7000080B584B003A8002196
:10CB20000170FFE703A80078C7280ADCFFE7214867
:10CB3000C82100224254FFE70398401C03A9087053
:10CB4000F0E71C481C49012202900846029B019113
:10CB5000194601F02BF802980278411C019801F067
:10CB600025F8029841785029009108D0FFE70098F5
:10CB7000522808D0FFE7009853280ED016E00D4841
:10CB8000FFF7A0FD13E00F490D480B2201F035F827
:10CB90000320C003FFF7D2FD09E0084908480B2233
:10CBA00001F02BF80020FFF7C9FD00E0FFE704B01B
:10CBB00080BDC046310000200000054043E7000072
:10CBC000000015406BE7000085B004900C48C16878
:10CBD0000391816802914168019100680090049876
:10CBE0001F2102460A4001219140800F80006A46C1
:10CBF0001058044A83580B43835005B07047C04611
:10CC000078E600000402005080B592B010900F91B9
:10CC100001200004D4490860109800280FD1FFE7D4
:10CC200082480168012211430160104600F034FB84
:10CC300000210A91CD490E9102210D9110E07B480F
:10CC400001680422114301601020039200F024FBCC
:10CC50000121C9040A91EF490E9103990D91FFE753
:10CC60000F986149884208D8FFE70F985F498842CA
:10CC700003D3FFE700200B9022E00F985C49884225
:10CC80000BD8FFE70F985B49884206D3FFE70120E6
:10CC90000B900F9840000F9011E00F985649884272
:10CCA0000BD8FFE70F985549884206D3FFE70320CA
:10CCB0000B900F9880000F9000E07DE0FFE7FFE70A
:10CCC0000020C143069104900590FFE70D982128AC
:10CCD00053D8FFE70E980D99FFF722FA09900998AB
:10CCE0004A49884244D3FFE70998494988423FD8D6
:10CCF000FFE702200C90FFE70C984649884236D89F
:10CD0000FFE709980C9941430891089838498842EF
:10CD100028D3FFE708983449884223D8FFE70898CA
:10CD20000F99884205D9FFE708980F99401A029099
:10CD300004E00F980899401A0290FFE702980790C4
:10CD40000798069988420CD2FFE7079806900D983D
:10CD500004900C9805900698002801D1FFE706E0A2
:10CD6000FFE7FFE7FFE70C98401C0C90C4E7FFE7E4
:10CD7000FFE70D98401C0D90A8E70A980B998903CE
:10CD8000084304994902204A891808430599891ED5
:10CD90000843D3490860042000F07EFA0E990B9AEC
:10CDA000521C049B5343019008461946FFF7B8F9FB
:10CDB00005994143119113E01098002804D1FFE731
:10CDC000C7481049016003E0C5480D490160FFE70D
:10CDD000042000F061FA009000F078F81190FFE76D
:10CDE000119812B080BDC04600C2EB0B01E1F50501
:10CDF00000E1F50581F0FA0280F0FA0240787D0149
:10CE00006FD608002EC2000000FCFFFF016A180068
:10CE1000BFE1E4000102000081B000900098CC491D
:10CE20000A6802430A6001B07047C0460002005021
:10CE300080B588B00020069074480090A84800682B
:10CE4000059005A880780521084203D0FFE700205F
:10CE5000079037E005A880780007002803D5FFE792
:10CE60006C48049002E06A480490FFE705A88078C7
:10CE70008007002803D5FFE70498079022E005A863
:10CE80000088800B6946081800780190059862496F
:10CE90000840801C039005981F2149020840400A61
:10CEA000801C029004988008039941430298019ADB
:10CEB000424308461146FFF733F980000690069872
:10CEC0000790FFE7079808B080BDC04680B588B0DE
:10CED000002006904D48009081480068059005A804
:10CEE00080780521084203D0FFE70020079037E053
:10CEF00005A880780007002803D5FFE7454804907F
:10CF000002E043480490FFE705A8807880070028E6
:10CF100003D5FFE70498079022E005A80088800B5E
:10CF2000694608180078019005983B490840801C24
:10CF3000039005981F2149020840400A801C029076
:10CF400004988008039941430298019A4243084695
:10CF50001146FFF7E5F88000069006980790FFE776
:10CF6000079808B080BDC04620020050001BB700E3
:10CF700080B588B00020069024480090584800688A
:10CF8000059005A880780521084203D0FFE700201E
:10CF9000079037E005A880780007002803D5FFE751
:10CFA0001C48049002E01A480490FFE705A8807826
:10CFB0008007002803D5FFE70498079022E005A822
:10CFC0000088800B6946081800780190059812497E
:10CFD0000840801C039005981F2149020840400A20
:10CFE000801C029004988008039941430298019A9A
:10CFF000424308461146FFF793F8800006900698D2
:10D000000790FFE7079808B080BDC0460102020400
:10D01000001BB70000805101FF01000080B582B005
:10D020000190AC4800681021084000900198284900
:10D03000884203D3FFE727480190FFE7019826497C
:10D04000884203D8FFE725480190FFE74048016880
:10D05000042211430160FFE79E480068C0060028D3
:10D0600001D4FFE7F8E78548016807221143016012
:10D070001B480168012212041143016095480068B1
:10D08000C007002806D0FFE701990020FFF7BCFD8C
:10D0900001900BE001990120C004FFF7B5FD01905C
:10D0A0008C480068102108400090FFE70220002112
:10D0B00000F018F80098002806D1FFE7244801681E
:10D0C000042291430160FFE7019802B080BDC04691
:10D0D00081F0FA0280F0FA023F787D0140787D010C
:10D0E0002002005010B584B0039002917948006886
:10D0F0001021084001901648016804221143016084
:10D10000FFE774480068C006002801D4FFE7F8E78D
:10D110005A4801680722114301605E490B680F24D9
:10D12000A343029C23430B6001689143039A11437C
:10D13000016000F0B1FA0198002806D1FFE7044829
:10D140000168042291430160FFE704B010BDC046AE
:10D15000000200508BB00A900991089200200790BD
:10D1600006904448C1680591816804914168039123
:10D1700000680290404841680191006800900A9858
:10D180000001400F002856D0FFE70A98800E0C21BE
:10D19000084002A9085839494018079007980068C4
:10D1A0000A990A01520FC901C90E8A409043099990
:10D1B0000843079908600A98314988420AD1FFE775
:10D1C00033480168012212029143099B1340C91898
:10D1D00001602FE00A982B4988420AD1FFE72C48CA
:10D1E0000168012252029143099B1340C918016052
:10D1F0001FE00A98244988420AD1FFE724480168C1
:10D20000012292029143099B1340C91801600FE06B
:10D210000A981E4988420AD1FFE71D480168012289
:10D22000D2029143099B1340C9180160FFE7FFE751
:10D23000FFE7FFE7FFE70A98800A0006002817D0FB
:10D24000FFE70AA840880C210840694608581149A0
:10D2500040180690069800680A998A0AD2B2890591
:10D26000C90E8A4090430899084306990860FFE771
:10D270000BB0704768E60000E8E6000010020050BE
:10D280001400C0571500E05716004066170060668E
:10D290001C0200501802005083B001900C4800900E
:10D2A000FFE70C4800680199084088420AD0FFE770
:10D2B0000098411E0091002803DCFFE70020029047
:10D2C00003E0EEE701200290FFE7029803B0704709
:10D2D000804F12000C02005082B000903B48222187
:10D2E000016000983A4908603B4801210160BFF3A2
:10D2F0006F8FFFE738480068002801D0FFE7F9E7A3
:10D300000D4800684006002809D5FFE70A48016873
:10D310004022114301600020C043019002E0002040
:10D320000190FFE7019802B07047C04602480168CB
:10D33000012211430160704700C0005081B000908D
:10D3400022480021016000982149086022480121FB
:10D350000160BFF36F8FFFE71F480068002801D00E
:10D36000FFE7F9E71B48006801B0704781B0009003
:10D3700016482E21016000981549086016480121C1
:10D380000160BFF36F8FFFE713480068002801D0EA
:10D39000FFE7F9E701B0704782B0019000910B48B8
:10D3A0002121016001980A49086000980949086034
:10D3B000094801210160BFF36F8FFFE7064800684D
:10D3C000002801D0FFE7F9E702B070470CC0005019
:10D3D00004C0005008C0005010C0005084B003903A
:10D3E0000291019200200090FFE700980F2819D8C1
:10D3F000FFE702980099C840C00700280DD0FFE75A
:10D40000039800680099490003228A409043019ADA
:10D410008A40104303990860FFE7FFE70098401C2B
:10D420000090E2E704B070470648042071460842C5
:10D4300003D0EFF30980714606E0EFF3088003E0C4
:10D44000FFE7FEE749D4000080B582B001900548AF
:10D4500000F07EFC01990090084600F02DFCFFE7EB
:10D46000FEE7C04691E7000081B001466A461070B1
:10D4700010781F221040012282400248026001B051
:10D480007047C04600E100E070B582B0024601ABD3
:10D4900018700091187840B200281BD5FFE701A84A
:10D4A00001780F22114008390323DB431940174C40
:10D4B0000959007840B28507ED0EFF26AE40B14312
:10D4C000009EB601F6B2AE40314310400838184015
:10D4D000015116E001A8017849B20322D24311405C
:10D4E000094BC958007840B28407E40EFF25A540D7
:10D4F000A943009DAD01EDB2A54029431040C150A4
:10D50000FFE702B070BDC04600E400E01CED00E0A3
:10D5100006480068022108404008012804D1FFE7BE
:10D52000024802210160FFE77047C0462C8000409E
:10D5300080B584B0072001031648002203900292B0
:10D54000FFF708FE0398FFF73FFB134800F048F889
:10D55000D94801680122930699430160D1060190E0
:10D5600000F042F901990A6817231A43E8239A4305
:10D570000A607D22D200094B1A600090084600F034
:10D58000CFF8CE48029901800920FFF76DFF04B063
:10D5900080BDC0460300C05E0300000424000140BB
:10D5A00080B584B00420FFF737FC1020FFF774FE2D
:10D5B00007210022039008461146FFF793FD09203A
:10D5C0000290FFF729FC0298FFF766FE03490190DD
:10D5D0000846FFF723FD04B080BDC04680F0FA0284
:10D5E000B0B581B0009000980A4902460A40012374
:10D5F0001C469440000E084A8558254385500098E3
:10D6000004460C40A340000E81589943815001B05C
:10D61000B0BDC046FFFFFF0008000050FFE707480D
:10D620000068012808D0FFE704485921016016214D
:10D63000016088210160F2E77047C0460001005098
:10D6400080B582B00190019800F002F802B080BD70
:10D6500081B00090FFE70E4800680002002801D565
:10D66000FFE7F8E700980A280CD1FFE709480D21E9
:10D670000160FFE7064800680002002801D5FFE7C7
:10D68000F8E7FFE700980349086001B07047C0461B
:10D69000180015400000154080B584B0FFF7C8FBA6
:10D6A0001549086015480068072108400290029853
:10D6B000022806D0FFE7029880001149085803901D
:10D6C00003E00D4800680390FFE7B54800680F21AC
:10D6D0000840401C019003980199FEF721FD414943
:10D6E00008600868074940180749FEF719FD07490F
:10D6F000086004B080BDC046040000201002005045
:10D700000C00002020A1070040420F000000002074
:10D71000704781B0009000980121816001B070478E
:10D7200081B0009000980168012252071143016006
:10D7300001B0704781B000900098806801210840D6
:10D7400001B07047B0B58BB00990244869463CC819
:10D750003CC13CC83CC10998C349884208D1FFE795
:10D760008E480068072109020840000A089023E05B
:10D770000998BF49884208D1FFE788480068072117
:10D7800009030840000B089015E0099814498842E5
:10D7900008D1FFE781480068072109040840000C10
:10D7A000089007E07D480068072109050840000D42
:10D7B0000890FFE7FFE7FFE70898022804D1FFE79A
:10D7C000084800680A9005E00898800069460858F3
:10D7D0000A90FFE70A980BB0B0BDC046C8E600004B
:10D7E000000011400800002080B586B0059004912B
:10D7F00003920598FFF7A6FF029000200190009089
:10D80000039802994908884203D9FFE70220019052
:10D8100013E002980399FEF783FC019001A8C078F9
:10D8200000900098002807D0FFE701980099491C54
:10D83000FEF776FC0190FFE7FFE7049800990843A4
:10D840000599086001980599486002980199009A25
:10D85000521C4A431146FEF763FC06B080BD81B0FE
:10D86000009000980168012292071143016001B005
:10D870007047000080B57C48FFF75CFF012808D1A5
:10D88000FFE77948FFF745FF02480168491C01603E
:10D89000FFE780BD1401002080B57548FFF74AFFFF
:10D8A000012808D1FFE705480188491C018070481C
:10D8B000FFF72FFFFFE780BD200001401801002087
:10D8C00010B58AB0099008913348C1680591816804
:10D8D0000491416803910068029000200190B149D1
:10D8E0000968032213061940090E07AB19702C4969
:10D8F00009680F2424022140090A06AC2170099905
:10D9000008630998C26009988168264A11408160BD
:10D910001878012808D1FFE7FFF72AFB07A9097843
:10D92000890002AA5050FFE70898002832D0FFE78C
:10D9300007A80078800002A9085806A90978491CA0
:10D94000FEF7EEFB08994A088018FEF7E9FB801EF7
:10D95000019001A84088002814D0FFE707A80078AC
:10D96000800002A9085806A90978491CFEF7D8FBCF
:10D970000899CA008018FEF7D3FB0009801E099998
:10D98000486206E0019803210907084309994862A3
:10D99000FFE7FFE70AB010BD98E600001402005050
:10D9A000180200500FFFF0FF80B50A4800680821F8
:10D9B0000840C00801280BD1FFE70648016808228B
:10D9C0001143242291430160034800F0C1F9FFE7AD
:10D9D00080BDC04600400040F0E6000080B5FFF783
:10D9E0001DFEFFF7DDFD00F005F80220FFF7ECF863
:10D9F00080BD000080B586B000F03CF8FFF798FDD0
:10DA00003E480590FFF7E0F8072001020022059844
:10DA1000FFF7A0FB0120C106134A04901046049BA7
:10DA200003921A46FFF7E0FE03990A6817231A4388
:10DA3000E8239A430A607D22D2000C4B1A600290C0
:10DA40000846FFF76DFE082001900499FFF71CFDC2
:10DA50000198FFF709FD0398FFF701FF0448FFF75E
:10DA6000FEFE06B080BDC04600000140040001403B
:10DA70002000014080B586B020480590FFF7A4F84B
:10DA80001F480490FFF7A0F81E480390FFF79CF88A
:10DA900000200599029008460299029AFFF75AFB66
:10DAA00001204104049A01901046029AFFF752FBAC
:10DAB00003980299029AFFF74DFB3B480168032245
:10DAC0009143016001681143016001680E4A1140F1
:10DAD000016001680D4A114301600D48016811227F
:10DAE0009206914301600168019A9306194301600F
:10DAF00008480299016006B080BDC0460200805E01
:10DB00000400005F0500405FF8F2FFFF070D000012
:10DB1000500000505C00005080B582B00190009130
:10DB200001986149884204D1FFE71D48FFF74CF88E
:10DB300009E001985D49884204D1FFE71748FFF7E3
:10DB400043F8FFE7FFE717480168032212069143F5
:10DB500001600168016001985349884209D1FFE7DB
:10DB6000114801680322914301600168114301607B
:10DB70000EE001984D49884209D1FFE70A48016843
:10DB8000302291430160016811430160FFE7FFE724
:10DB900001980099FFF794FE02B080BD113D8057B7
:10DBA000103D8057140200503400005084B01346DA
:10DBB0000390029101A80270684600210170FFE7FE
:10DBC0006846007801A90978884214DAFFE7FFE780
:10DBD0000398C069C007002801D1FFE7F8E7039860
:10DBE000006802996A4612788854FFE70098401C42
:10DBF00069460870E4E704B0704784B013460390A8
:10DC0000029101A80270684600210170FFE7684692
:10DC1000007801A90978884214DAFFE7029869467A
:10DC20000978405C03990860FFE70398C0698007A2
:10DC3000002801D4FFE7F8E7FFE70098401C694699
:10DC40000870E4E704B0704780B582B0019000919D
:10DC50000198FFF7F5FC019802B080BD80B584B053
:10DC6000002003900290FFF7B9FE4B2040020E49BE
:10DC7000019008460199FFF74FFF0C480090019969
:10DC8000FFF74AFF0A480121029AFFF7A7FB09495B
:10DC90000D220098FFF7B1FFFEF7C2FDFEF714FE5C
:10DCA000FFE7FEF739FFFCE70000054000001540E4
:10DCB0000040005008E8000080B588B00790079841
:10DCC00001681B4800F044F807994968194A069012
:10DCD000104600F03DF807998968174A05901046EC
:10DCE00000F036F80799C968144A0490104600F00D
:10DCF0002FF807990969124A0390104600F028F896
:10DD0000079949690F4A0290104600F021F80799D7
:10DD100089690D4A0190104600F01AF80799C969FF
:10DD20000A4A0090104600F013F808B080BDC046C3
:10DD3000A8E70000B4E70000C0E70000CCE700005F
:10DD4000F0E70000E4E70000D8E70000FCE700008F
:10DD50000FB410B503A9044B044A029800F0E8F888
:10DD600010BC08BC04B0184749DC000000010020CA
:10DD70002021020C01D010211046020A01D01046C9
:10DD80000839020901D01046091F820801D0104647
:10DD9000891E420801D0881E7047081A704702E0A9
:10DDA00008C8121F08C1002AFAD170477047002026
:10DDB00001E001C1121F002AFBD17047F0B51FB46A
:10DDC00086B00998089A030D0021024314D05148E7
:10DDD000514A1818504305141198012810981AD068
:10DDE000281A401C00264D4F4D4900960191049081
:10DDF000002812DA444211E01198012449A30128B5
:10DE000001D11098C1430698119A84600360C260E2
:10DE100041600BB0F0BD4042E4E70446210500201C
:10DE20003F4A001C51410391029012E0E00707D0E5
:10DE300032463B4601990098FEF76AFA019100903C
:10DE400032463B4610461946FEF762FA06460F4632
:10DE50006410002CEAD10498039B0028029A0999C7
:10DE6000089806DAFEF754FA019B009AFEF750FA7A
:10DE700005E0FEF7B5FA019B009AFEF7B1FA0446F9
:10DE80000E460022284BFEF743FB03D80020C04378
:10DE9000014607E00022254B20463146FEF786F971
:10DEA000FEF716FB102409E0002C0ADB0A220023EF
:10DEB000FEF74CF9079B30321A55641E02460A439E
:10DEC000F2D11122641C079B121B1C19119B012B00
:10DED00003D0012308430ED10AE0084304D01120E7
:10DEE00010900020119077E71098151A6D1E0BE026
:10DEF0001098824202DD00236D1C03E0824201DAA9
:10DF000000236D1E002BEED0069811998260C1602F
:10DF100030C07EE701FCFFFF104D00000000144000
:10DF20000000F03F300000000000F0430000E03F40
:10DF3000FFB597B00646002518E2252877D10024C2
:10DF40002746FD49049400E00443761C3278012002
:10DF5000203A90400842F7D130782A280ED0022289
:10DF6000307801463039092916D804990A235943D3
:10DF7000303940181443761C0490F1E7189802C811
:10DF800004911890002904DA012040030443484218
:10DF9000049002200443761C30782E2814D10420EB
:10DFA00004437078761C2A2809D11898761C80C8FA
:10DFB000189009E00A214F43303FC719761C30788A
:10DFC000014630390929F5D930786C2810D006DCA3
:10DFD0004C281AD068280ED06A2817D104E074287B
:10DFE00013D07A2812D110E00120400504430CE040
:10DFF0000121090501E0032109050C4371788142E3
:10E0000003D1012000052418761C761C307811906D
:10E0100066280BD013DC58287DD009DC00287BD083
:10E020004528F6D04628F4D047281AD1A5E118E0B3
:10E03000632835D0642870D0652812D19DE17028FE
:10E040006CD008DC6728F1D069287BD06E280DD011
:10E050006F2806D1BAE073282ED0752871D07828A1
:10E0600059D01A9A199990476D1C7EE16002400FB1
:10E07000022809D003280DD00428189801680DD073
:10E080000D60001D189070E11898EA1701680D6086
:10E090004A60F6E7189801680D80F2E70D70F0E726
:10E0A00018986A4601781172001D1890002050726D
:10E0B00002A80090012005E0189802C818900020DE
:10E0C0000091C04361070DD5002101E00199491C71
:10E0D0000191B94212DA8142F8DB009A515C0029C1
:10E0E000F4D10BE0002101E00199491C019181422A
:10E0F000FADB019A0099895C0029F5D1019904980D
:10E100001A9B471A21463846199A00F097FA019946
:10E11000401945180BE04FE02CE113E04EE0009869
:10E1200000990078491C00911A9A19999047019812
:10E13000401E0190401CF2D1214638461A9B199A84
:10E1400010E137E00A200021009001916002410FA8
:10E15000022907D0189A01CA1892C21794460329B7
:10E1600008D00AE01898C01DC108C90005C9189157
:10E17000944607E000B2C2179446042902D140B287
:10E18000C1178C4600226146944506DA0A460021F2
:10E19000404291418C462D2102E0210504D52B21DE
:10E1A0006A461173012103E0E10701D02021F7E75E
:10E1B000029155E00A200AE0102008E010200090AB
:10E1C0000021042004430191082703E008200021D6
:10E1D000019100906002410F022907D0189A01CAEC
:10E1E000189200229446032908D008E01898C01D10
:10E1F000C108C90005C91891944603E080B20429FA
:10E2000000D1C0B200210291210729D511997029AE
:10E2100006D0009A1021019B4A401A4305D00EE017
:10E2200040216A461173012108E06146014306D08E
:10E2300030216A4611731199517302210291009A9B
:10E240000821019B4A401A430AD16146014301D18A
:10E25000610705D530216A46117301217F1E0291A5
:10E260001199582904D035A10E910DA90D910DE0F9
:10E2700037A1F9E76146019B009AFDF767FF0E9B06
:10E280008C469B5C0D9A521E0D92137061460143A1
:10E29000F0D10D9805A9081A20300190600703D528
:10E2A00001200004844300E001270198874201DD3A
:10E2B000381A00E0002001990090411802980918CE
:10E2C0000498401A0490E00306D421461A9B199A38
:10E2D000049800F0B3F94519002706E003A81A9A3C
:10E2E000C05D199990476D1C7F1C02988742F5DB31
:10E2F000E0030CD521461A9B199A049800F09EF968
:10E30000451904E01A9A3020199990476D1C00991C
:10E31000481E00900029F5DC08E00D980D99007862
:10E32000491C0D911A9A199990476D1C0199481E24
:10E3300001900029F1DC63E109280100303132331A
:10E340003435363738396162636465660000000031
:10E35000303132333435363738394142434445461B
:10E360000000000000F05AF94519761C30780028AA
:10E3700000D0E2E528461BB0F0BD600700D40627B8
:10E380001898C01DC108C90048680A680831C30F41
:10E39000DB071891190001D09CA108E0210501D5E7
:10E3A0009BA104E0E10701D09AA100E09AA14300FB
:10E3B00011985B08109165280CD006DC452809D01F
:10E3C00046281DD0472841D141E0662818D067284B
:10E3D0003CD13CE00021112F01DB112000E0781C32
:10E3E0000191009008A911A8FFF7E8FC1399059185
:10E3F0000021119A15927F1C12980197009150E00C
:10E400000120C00703900120019008A9009711A8DE
:10E41000FFF7D4FC139A149905920022119B0092E5
:10E4200012981593059A0192002901D0104602E036
:10E43000791C40180190381A01D5019804E0404237
:10E44000401E0090781C0190C01B029043E0012FF9
:10E4500000DA01270021112F01DD112000E03846EC
:10E460000191009008A911A8FFF7A8FC1399059144
:10E47000119A0021129815920091019721070CD44E
:10E480000599B94201DB019900E00191012904DD00
:10E49000159A491E515C302906D0B84201DA011D97
:10E4A00005DA0121029115E00199491EEDE70028E6
:10E4B00005DC0099411800910199091A03E0019ABD
:10E4C000411C914200DD01910099401A401C0290CC
:10E4D0000120C0070390200706D4029901988142C9
:10E4E00002DB0020C043029000206946C87707AFD6
:10E4F000012103980337C907884224D002201190D4
:10E500002B201290039800280CDA404203902D2013
:10E51000129007E00A210398FDF702FE30317F1EBA
:10E52000039039701199481E11900029F2DC03986C
:10E530000028EFD1791E1298087030782021084009
:10E540004530BF1E387006A8C01BC01D0390109830
:10E550000078002800D00120019941180298C017C6
:10E560000918039809180498401A401E0490E00303
:10E5700006D421461A9B199A049800F05FF84519B1
:10E5800010980078002803D01A9A199990476D1CAA
:10E59000E00324D521461A9B199A049800F04EF8FE
:10E5A00045191CE00098002807DB0099059888426F
:10E5B00003DD1598405C199901E0199930201A9AE9
:10E5C000904700986D1C401C00900298401E0290DD
:10E5D000002804D11A9A2E20199990476D1C019990
:10E5E000481E01900029DDDC05E038781A9A7F1C6E
:10E5F000199990476D1C0399481E03900029F4DC7B
:10E6000021461A9B199A0498ACE600002D000000E0
:10E610002B0000002000000000000000F8B50446B8
:10E6200000251E461746880404D405E039462020FC
:10E63000B0476D1C641EF9D52846F8BDFFB50446E9
:10E64000002581B01E46C80301D5302700E02027F1
:10E65000880404D505E038460399B0476D1C641E54
:10E66000F9D5284605B0F0BD000000000400000008
:10E670000C00000024000000000000000400000066
:10E680002C0000000000000000000000040000005A
:10E690002C00000000000000001BB700000000007C
:10E6A0000000000000805101001BB70000000000C6
:10E6B0000000000000805101001BB70000000000B6
:10E6C0000000000000805101001BB7000080000026
:10E6D0000000000000000000000000001027000003
:10E6E0000000000000805101000000002000000038
:10E6F0005744542074696D652D6F757420696E746C
:10E70000657272757074206F636375727265642EC2
:10E710000A004E7574206E68616E203D20300A003C
:10E720004E7574206E68616E203D20310A0043688A
:10E730006179206368756F6E67207472696E6820F6
:10E74000310A005570646174654657310A004368A8
:10E750006179206368756F6E67207472696E6820D6
:10E76000320A00436F204657320A005570646174C4
:10E77000654657320A004B686F6E6720636F2063EF
:10E780006120322046570A00465732206C6F690AD2
:10E7900000496E2048617264204661756C7420489F
:10E7A000616E646C65720A00723020203D20307802
:10E7B00025780A00723120203D20307825780A0023
:10E7C000723220203D20307825780A0072332020D4
:10E7D0003D20307825780A00706320203D20307875
:10E7E00025780A006C7220203D20307825780A00B8
:10E7F000723132203D20307825780A007073722003
:10E800003D20307825780A00426F6F744C6F616448
:10E8100065720A0038E800000000002030000000A7
:10E820009EDD000068E8000030000020F0040000D9
:10E83000AEDD0000000000003200000080F0FA02AF
:10E8400080F0FA02001BB7000080000080F0FA029E
:10E850001027000000000000000000000000000081
:08E860000080510100000000DE
:0400000500000000F7
:00000001FF
